:020000040000FA
:04100000ACEF08F059
:101008001382D9CF11F0DACF12F09EA60EEF08F0B6
:1010180010EF08F081EF08F0C7BA15EF08F017EFE6
:1010280008F050EF08F0C9CF0DF0C7A41EEF08F084
:1010380020EF08F04AEF08F0010E096E0904D8A461
:1010480028EF08F02AEF08F07DEF08F0030E08609B
:1010580030EF08F032EF08F07DEF08F0050E0824B5
:10106800D96EDA6A000EDA22DF50C96E082A030E3A
:101078000818D8A442EF08F044EF08F04EEF08F043
:10108800000E096E000E086E7DEF08F0020E096E64
:101098007DEF08F07DEF08F0020E0918D8A457EF8D
:1010A80008F059EF08F079EF08F0030E04605FEFDD
:1010B80008F061EF08F079EF08F0010E0424D96E0A
:1010C800DA6A000EDA22C9CFDFFF042A030E0418F9
:1010D800D8A471EF08F073EF08F07DEF08F0000E68
:1010E800046E000E096E7DEF08F0000E096E000E0A
:1010F800046EC69CC69E9E96C6889EAC86EF08F077
:1011080088EF08F08BEF08F09E9CC4CF05F0F2A49E
:1011180090EF08F092EF08F0A6EF08F04C0ED76EAB
:10112800B00ED66EF2948A74C2820A2A0F500A1838
:10113800D8A4A1EF08F0A3EF08F0A6EF08F08B7E83
:10114800000E0A6E12C0DAFF11C0D9FF1392110007
:10115800D9EF08F0F0EC08F004EC09F01AEC09F00B
:1011680011EC09F0000E086E000E046EF28E000EEF
:101178008A6E000E896EBA84D58E03C089FF80CF2F
:1011880006F081CF07F001C00FF00204D8A4CFEF1A
:1011980008F0D1EF08F0D4EF08F08B8CC1EF08F01D
:1011A8008B9CC1EF08F0ACEF08F0420EF66E120E01
:1011B800F76E000EF86E0900F5CF0FF00900F5CFB5
:1011C80010F000EE01F00E0EEE6AE806FDE1139055
:1011D80013920001AEEF08F0000E896E9268000EBF
:1011E800C16E000E0F015B6F000E986E000E8A6EC6
:1011F800F00E936E000E8B6E000E946EF29E12002F
:1012080093809382300EC86E360EC66E800EC76EFF
:10121800010EC56E9D86F28C1200430ED56E4C0EE3
:10122800D76EB00ED66EF294F28A1200010EC26E1C
:0C123800000EC16E080EC06E1200011105
:020000040020DA
:08000000FFFFFFFFFFFFFFFF00
:020000040030CA
:0E00000000255F3FFFD385FF0FC00FE00F40CC
:00000001FF
