:020000040000FA
:04100000D0EF08F035
:101008001382E1CF0DF0E2CF0EF0D9CF0FF0DACF97
:1010180010F09EA612EF08F014EF08F094EF08F015
:10102800C7BA19EF08F01BEF08F055EF08F0C9CF61
:101038000BF08B7EC7A423EF08F025EF08F04FEFE5
:1010480008F0010E076E0704D8A42DEF08F02FEF63
:1010580008F090EF08F0020E066035EF08F037EF61
:1010680008F090EF08F0040E0624D96EDA6A000E34
:10107800DA22DF50C96E062A020E0618D8A447EFF6
:1010880008F049EF08F053EF08F0000E076E000E65
:10109800066E90EF08F0020E076E90EF08F090EFE2
:1010A80008F0020E0718D8A45CEF08F05EEF08F00D
:1010B8008CEF08F0020E036064EF08F066EF08F0AA
:1010C8008CEF08F0010E0324D96EDA6A000EDA22DA
:1010D800C9CFDFFF010E0324D96EDA6A000EDA22C7
:1010E800040E0324E16EE26A000EE222DFCFE7FF7E
:1010F800032A020E0318D8A484EF08F086EF08F03C
:1011080090EF08F0000E036E000E076E90EF08F0E7
:10111800000E076E000E036EC69CC69E9E96C6887D
:101128009EAC99EF08F09BEF08F0A0EF08F09E9CAA
:10113800C4CF04F080CF05F09EA2A5EF08F0A7EF7A
:1011480008F0ACEF08F09E508A74000EBC6EBB68C5
:10115800F2A4B1EF08F0B3EF08F0C6EF08F04C0EB8
:10116800D76EB00ED66EF294C282082A11500818B3
:10117800D8A4C1EF08F0C3EF08F0C6EF08F08A7EE4
:10118800000E086E10C0DAFF0FC0D9FF0EC0E2FFD4
:101198000DC0E1FF13921100F0EF08F007EC09F021
:1011A8001BEC09F03AEC09F028EC09F031EC09F0F5
:1011B800000E066E000E036EF28E000E8A6E000E92
:1011C800896EBA84D58EF00E00D0E82EFDD7C28283
:1011D800E7EF08F0D0EF08F0820EF66E120EF76E09
:1011E800000EF86E0900F5CF11F00900F5CF12F0E6
:1011F80000EE01F00C0EEE6AE806FDE11390139282
:101208000001D2EF08F0000E896E9268000EC16EE0
:10121800000E0F015B6F000E986E000E8A6E000EB6
:10122800936E000E8B6E000E946EF29E12009380E9
:101238009382300EC86E360EC66E800EC76E010ED3
:10124800C56E9D86F28C1200BB68790EBA6E9D82BF
:10125800000EBC6E780EBA121200430ED56E4C0EFC
:10126800D76EB00ED66EF294F28A1200010EC26EDC
:0C127800000EC16E080EC06E12000A11BC
:020000040020DA
:08000000FFFFFFFFFFFFFFFF00
:020000040030CA
:0E00000000255F3FFFD385FF0FC00FE00F40CC
:00000001FF
