:020000040000FA
:04100000ADEF08F058
:101008001182D9CF0FF0DACF10F09EA60EEF08F0BC
:1010180010EF08F082EF08F0C7BA15EF08F017EFE5
:1010280008F051EF08F0C9CF0BF08B7EC7A41FEF73
:1010380008F021EF08F04BEF08F0010E076E0704E7
:10104800D8A429EF08F02BEF08F07EEF08F0020E85
:10105800066031EF08F033EF08F07EEF08F0040E79
:101068000624D96EDA6A000EDA22DF50C96E062A23
:10107800020E0618D8A443EF08F045EF08F04FEF2A
:1010880008F0000E076E000E066E7EEF08F0020EE6
:10109800076E7EEF08F07EEF08F0020E0718D8A45E
:1010A80058EF08F05AEF08F07AEF08F0020E0360E4
:1010B80060EF08F062EF08F07AEF08F0010E032401
:1010C800D96EDA6A000EDA22C9CFDFFF032A020ED0
:1010D8000318D8A472EF08F074EF08F07EEF08F058
:1010E800000E036E000E076E7EEF08F0000E076E0E
:1010F800000E036EC69CC69E9E96C6889EAC87EF61
:1011080008F089EF08F08CEF08F09E9CC4CF04F03B
:10111800F2A491EF08F093EF08F0A7EF08F04C0E57
:10112800D76EB00ED66EF2948A74C282082A0D5019
:101138000818D8A4A2EF08F0A4EF08F0A7EF08F069
:101148008A7E000E086E10C0DAFF0FC0D9FF119218
:101158001100D7EF08F0EEEC08F003EC09F019ECF9
:1011680009F010EC09F0000E066E000E036EF28E08
:10117800000E8A6E000E896EBA84D58EC28280CF28
:1011880005F001C00DF00204D8A4CDEF08F0CFEFB0
:1011980008F0D2EF08F08A8CC2EF08F08A9CC2EF00
:1011A80008F0ADEF08F0400EF66E120EF76E000E66
:1011B800F86E0900F5CF0DF00900F5CF0EF000EE3E
:1011C80001F00C0EEE6AE806FDE1119011920001A3
:1011D800AFEF08F0000E896E830E926E000EC16E9E
:1011E800000E0F015B6F000E986E000E8A6E000EE7
:1011F800936E000E8B6E000E946EF29E120093801A
:101208009382300EC86E360EC66E800EC76E010E03
:10121800C56E9D86F28C1200430ED56E4C0ED76EAD
:10122800B00ED66EF294F28A1200010EC26E000E53
:0A123800C16E080EC06E1200011115
:020000040020DA
:08000000FFFFFFFFFFFFFFFF00
:020000040030CA
:0E00000000255F3FFFD385FF0FC00FE00F40CC
:00000001FF
